{
  "_format": "hh-sol-artifact-1",
  "contractName": "AccessControl",
  "sourceName": "contracts/AccessControl.sol",
  "abi": [
    {
      "inputs": [
        {
          "internalType": "address",
          "name": "_dataVault",
          "type": "address"
        }
      ],
      "stateMutability": "nonpayable",
      "type": "constructor"
    },
    {
      "inputs": [],
      "name": "dataVault",
      "outputs": [
        {
          "internalType": "contract DataVault",
          "name": "",
          "type": "address"
        }
      ],
      "stateMutability": "view",
      "type": "function"
    }
  ],
  "bytecode": "0x608060405234801561001057600080fd5b5060405161012338038061012383398101604081905261002f91610054565b600080546001600160a01b0319166001600160a01b0392909216919091179055610084565b60006020828403121561006657600080fd5b81516001600160a01b038116811461007d57600080fd5b9392505050565b6091806100926000396000f3fe6080604052348015600f57600080fd5b506004361060285760003560e01c8063b4eb196414602d575b600080fd5b600054603f906001600160a01b031681565b6040516001600160a01b03909116815260200160405180910390f3fea2646970667358221220812cfd37a642c68ebd956b73c519349cc23956728fdcc55560cfe401b231f7c564736f6c63430008140033",
  "linkReferences": {},
  "deployedLinkReferences": {}
}