{
  "_format": "hh-sol-artifact-1",
  "contractName": "DataMarketplace",
  "sourceName": "contracts/DataMarketplace.sol",
  "abi": [
    {
      "inputs": [
        {
          "internalType": "address",
          "name": "_dataVault",
          "type": "address"
        },
        {
          "internalType": "address",
          "name": "_paymentSplitter",
          "type": "address"
        }
      ],
      "stateMutability": "nonpayable",
      "type": "constructor"
    },
    {
      "inputs": [],
      "name": "CategoryInactive",
      "type": "error"
    },
    {
      "inputs": [],
      "name": "CategoryNotExists",
      "type": "error"
    },
    {
      "inputs": [],
      "name": "IncorrectPaymentAmount",
      "type": "error"
    },
    {
      "inputs": [],
      "name": "NotRequestBuyer",
      "type": "error"
    },
    {
      "inputs": [
        {
          "internalType": "address",
          "name": "owner",
          "type": "address"
        }
      ],
      "name": "OwnableInvalidOwner",
      "type": "error"
    },
    {
      "inputs": [
        {
          "internalType": "address",
          "name": "account",
          "type": "address"
        }
      ],
      "name": "OwnableUnauthorizedAccount",
      "type": "error"
    },
    {
      "inputs": [],
      "name": "ReentrancyGuardReentrantCall",
      "type": "error"
    },
    {
      "inputs": [],
      "name": "RefundFailed",
      "type": "error"
    },
    {
      "inputs": [],
      "name": "RequestNotExists",
      "type": "error"
    },
    {
      "inputs": [],
      "name": "RequestNotRequested",
      "type": "error"
    },
    {
      "inputs": [],
      "name": "ZeroDuration",
      "type": "error"
    },
    {
      "anonymous": false,
      "inputs": [
        {
          "indexed": true,
          "internalType": "uint256",
          "name": "requestId",
          "type": "uint256"
        },
        {
          "indexed": true,
          "internalType": "address",
          "name": "buyer",
          "type": "address"
        },
        {
          "indexed": true,
          "internalType": "address",
          "name": "seller",
          "type": "address"
        }
      ],
      "name": "DataAccessRequested",
      "type": "event"
    },
    {
      "anonymous": false,
      "inputs": [
        {
          "indexed": true,
          "internalType": "address",
          "name": "previousOwner",
          "type": "address"
        },
        {
          "indexed": true,
          "internalType": "address",
          "name": "newOwner",
          "type": "address"
        }
      ],
      "name": "OwnershipTransferred",
      "type": "event"
    },
    {
      "anonymous": false,
      "inputs": [
        {
          "indexed": true,
          "internalType": "uint256",
          "name": "requestId",
          "type": "uint256"
        }
      ],
      "name": "RequestApproved",
      "type": "event"
    },
    {
      "anonymous": false,
      "inputs": [
        {
          "indexed": true,
          "internalType": "uint256",
          "name": "requestId",
          "type": "uint256"
        },
        {
          "indexed": false,
          "internalType": "uint256",
          "name": "refundAmount",
          "type": "uint256"
        }
      ],
      "name": "RequestCancelled",
      "type": "event"
    },
    {
      "anonymous": false,
      "inputs": [
        {
          "indexed": true,
          "internalType": "uint256",
          "name": "requestId",
          "type": "uint256"
        },
        {
          "indexed": false,
          "internalType": "uint256",
          "name": "refundAmount",
          "type": "uint256"
        }
      ],
      "name": "RequestRejected",
      "type": "event"
    },
    {
      "inputs": [
        {
          "internalType": "uint256",
          "name": "requestId",
          "type": "uint256"
        }
      ],
      "name": "approveRequest",
      "outputs": [],
      "stateMutability": "nonpayable",
      "type": "function"
    },
    {
      "inputs": [
        {
          "internalType": "uint256",
          "name": "requestId",
          "type": "uint256"
        }
      ],
      "name": "cancelRequest",
      "outputs": [],
      "stateMutability": "nonpayable",
      "type": "function"
    },
    {
      "inputs": [],
      "name": "dataVault",
      "outputs": [
        {
          "internalType": "contract DataVault",
          "name": "",
          "type": "address"
        }
      ],
      "stateMutability": "view",
      "type": "function"
    },
    {
      "inputs": [],
      "name": "owner",
      "outputs": [
        {
          "internalType": "address",
          "name": "",
          "type": "address"
        }
      ],
      "stateMutability": "view",
      "type": "function"
    },
    {
      "inputs": [],
      "name": "paymentSplitter",
      "outputs": [
        {
          "internalType": "contract PaymentSplitter",
          "name": "",
          "type": "address"
        }
      ],
      "stateMutability": "view",
      "type": "function"
    },
    {
      "inputs": [
        {
          "internalType": "uint256",
          "name": "categoryId",
          "type": "uint256"
        },
        {
          "internalType": "uint256",
          "name": "durationDays",
          "type": "uint256"
        }
      ],
      "name": "quote",
      "outputs": [
        {
          "internalType": "uint256",
          "name": "total",
          "type": "uint256"
        },
        {
          "internalType": "uint256",
          "name": "platformFee",
          "type": "uint256"
        },
        {
          "internalType": "uint256",
          "name": "ownerAmount",
          "type": "uint256"
        }
      ],
      "stateMutability": "view",
      "type": "function"
    },
    {
      "inputs": [
        {
          "internalType": "uint256",
          "name": "requestId",
          "type": "uint256"
        }
      ],
      "name": "rejectRequest",
      "outputs": [],
      "stateMutability": "nonpayable",
      "type": "function"
    },
    {
      "inputs": [],
      "name": "renounceOwnership",
      "outputs": [],
      "stateMutability": "nonpayable",
      "type": "function"
    },
    {
      "inputs": [
        {
          "internalType": "uint256",
          "name": "categoryId",
          "type": "uint256"
        },
        {
          "internalType": "uint256",
          "name": "durationDays",
          "type": "uint256"
        }
      ],
      "name": "requestAccess",
      "outputs": [
        {
          "internalType": "uint256",
          "name": "requestId",
          "type": "uint256"
        }
      ],
      "stateMutability": "payable",
      "type": "function"
    },
    {
      "inputs": [
        {
          "internalType": "uint256",
          "name": "",
          "type": "uint256"
        }
      ],
      "name": "requestsById",
      "outputs": [
        {
          "internalType": "address",
          "name": "buyer",
          "type": "address"
        },
        {
          "internalType": "address",
          "name": "seller",
          "type": "address"
        },
        {
          "internalType": "uint256",
          "name": "categoryId",
          "type": "uint256"
        },
        {
          "internalType": "uint256",
          "name": "durationDays",
          "type": "uint256"
        },
        {
          "internalType": "uint256",
          "name": "amount",
          "type": "uint256"
        },
        {
          "internalType": "enum DataMarketplace.RequestStatus",
          "name": "status",
          "type": "uint8"
        }
      ],
      "stateMutability": "view",
      "type": "function"
    },
    {
      "inputs": [],
      "name": "totalRequests",
      "outputs": [
        {
          "internalType": "uint256",
          "name": "",
          "type": "uint256"
        }
      ],
      "stateMutability": "view",
      "type": "function"
    },
    {
      "inputs": [
        {
          "internalType": "address",
          "name": "newOwner",
          "type": "address"
        }
      ],
      "name": "transferOwnership",
      "outputs": [],
      "stateMutability": "nonpayable",
      "type": "function"
    }
  ],
  "bytecode": "0x608060405234801561001057600080fd5b50604051610fc8380380610fc883398101604081905261002f91610100565b338061005557604051631e4fbdf760e01b81526000600482015260240160405180910390fd5b61005e81610094565b5060018055600280546001600160a01b039384166001600160a01b03199182161790915560038054929093169116179055610133565b600080546001600160a01b038381166001600160a01b0319831681178455604051919092169283917f8be0079c531659141344cd1fd0a4f28419497f9722a3daafe3b4186f6b6457e09190a35050565b80516001600160a01b03811681146100fb57600080fd5b919050565b6000806040838503121561011357600080fd5b61011c836100e4565b915061012a602084016100e4565b90509250929050565b610e86806101426000396000f3fe6080604052600436106100a75760003560e01c80638da5cb5b116100645780638da5cb5b1461017a578063b4eb1964146101ac578063d7d1bbdb146101cc578063d8e1feed146101ec578063ed4a6b0c1461025e578063f2fde38b1461027e57600080fd5b80631b159ab4146100ac5780632d7788db146100d25780633015394c146100f4578063315f1a4114610114578063715018a61461014f5780638aea61dc14610164575b600080fd5b6100bf6100ba366004610b39565b61029e565b6040519081526020015b60405180910390f35b3480156100de57600080fd5b506100f26100ed366004610b5b565b61046f565b005b34801561010057600080fd5b506100f261010f366004610b5b565b6105c0565b34801561012057600080fd5b5061013461012f366004610b39565b6106f5565b604080519384526020840192909252908201526060016100c9565b34801561015b57600080fd5b506100f2610897565b34801561017057600080fd5b506100bf60045481565b34801561018657600080fd5b506000546001600160a01b03165b6040516001600160a01b0390911681526020016100c9565b3480156101b857600080fd5b50600254610194906001600160a01b031681565b3480156101d857600080fd5b506100f26101e7366004610b5b565b6108ab565b3480156101f857600080fd5b5061024c610207366004610b5b565b60056020819052600091825260409091208054600182015460028301546003840154600485015494909501546001600160a01b03938416959290931693909260ff1686565b6040516100c996959493929190610b8a565b34801561026a57600080fd5b50600354610194906001600160a01b031681565b34801561028a57600080fd5b506100f2610299366004610bfb565b610a52565b60006102a8610a92565b60006102b484846106f5565b505090508034146102d857604051636992e1ff60e01b815260040160405180910390fd5b600254604051634f68d92360e11b8152600481018690526000916001600160a01b031690639ed1b24690602401600060405180830381865afa158015610322573d6000803e3d6000fd5b505050506040513d6000823e601f3d908101601f1916820160405261034a9190810190610caf565b905060046000815461035b90610dd2565b91829055506040805160c0810182523381526020848101516001600160a01b039081168284019081528385018b8152606085018b8152608086018a8152600060a088018181528a8252600597889052989020875181549087166001600160a01b0319918216178255945160018083018054929098169190961617909555915160028501555160038085019190915590516004840155945192820180549699509395919492939260ff1990921691849081111561041957610419610b74565b0217905550505060208101516040516001600160a01b0390911690339085907f82b2d29b8fd27b4e11125d0b0c53267804bcc65760189fdabf0c732f43d5be0390600090a4505061046960018055565b92915050565b610477610abc565b61047f610a92565b600081815260056020526040902080546001600160a01b03166104b557604051630fe3b3c160e31b815260040160405180910390fd5b6000600582015460ff1660038111156104d0576104d0610b74565b146104ee57604051630c0b78ab60e41b815260040160405180910390fd5b60058101805460ff19166002179055805460048201546040516000926001600160a01b031691908381818185875af1925050503d806000811461054d576040519150601f19603f3d011682016040523d82523d6000602084013e610552565b606091505b505090508061057457604051633c31275160e21b815260040160405180910390fd5b827f83174f77f9261d2e9831d002ea903948abc40d4eaf8dbcc5849ada2e03d6615483600401546040516105aa91815260200190565b60405180910390a250506105bd60018055565b50565b6105c8610a92565b600081815260056020526040902080546001600160a01b0316331461060057604051639e17be2960e01b815260040160405180910390fd5b6000600582015460ff16600381111561061b5761061b610b74565b1461063957604051630c0b78ab60e41b815260040160405180910390fd5b60058101805460ff19166003179055805460048201546040516000926001600160a01b031691908381818185875af1925050503d8060008114610698576040519150601f19603f3d011682016040523d82523d6000602084013e61069d565b606091505b50509050806106bf57604051633c31275160e21b815260040160405180910390fd5b827f4085440a25fafeef91abfdee9c918ea9b13e1f6732f34f42ebc0c25ea671b3c483600401546040516105aa91815260200190565b60008060008360000361071b5760405163346ab43760e11b815260040160405180910390fd5b600254604051634f68d92360e11b8152600481018790526000916001600160a01b031690639ed1b24690602401600060405180830381865afa158015610765573d6000803e3d6000fd5b505050506040513d6000823e601f3d908101601f1916820160405261078d9190810190610caf565b60208101519091506001600160a01b03166107bb5760405163559ea27360e01b815260040160405180910390fd5b80604001516107dd57604051631817702f60e31b815260040160405180910390fd5b8481606001516107ed9190610deb565b93506000600360009054906101000a90046001600160a01b03166001600160a01b031663cdd78cfc6040518163ffffffff1660e01b8152600401602060405180830381865afa158015610844573d6000803e3d6000fd5b505050506040513d601f19601f820116820180604052508101906108689190610e02565b905060646108768287610deb565b6108809190610e1b565b935061088c8486610e3d565b925050509250925092565b61089f610abc565b6108a96000610ae9565b565b6108b3610abc565b6108bb610a92565b600081815260056020526040902080546001600160a01b03166108f157604051630fe3b3c160e31b815260040160405180910390fd5b6000600582015460ff16600381111561090c5761090c610b74565b1461092a57604051630c0b78ab60e41b815260040160405180910390fd5b600280549082015482546003840154604051630fcf29e360e31b815260048101939093526001600160a01b039182166024840152604483015290911690637e794f1890606401600060405180830381600087803b15801561098a57600080fd5b505af115801561099e573d6000803e3d6000fd5b5050600354600484810154600186015460405163056fa47f60e41b81526001600160a01b039182169381019390935290921693506356fa47f092506024016000604051808303818588803b1580156109f557600080fd5b505af1158015610a09573d6000803e3d6000fd5b5050505060058201805460ff191660011790555060405182907fbecbbd7543b68baaaf7e9c3fd12e4719f1f506f4253abef4a6573d0adf3a73ed90600090a2506105bd60018055565b610a5a610abc565b6001600160a01b038116610a8957604051631e4fbdf760e01b8152600060048201526024015b60405180910390fd5b6105bd81610ae9565b600260015403610ab557604051633ee5aeb560e01b815260040160405180910390fd5b6002600155565b6000546001600160a01b031633146108a95760405163118cdaa760e01b8152336004820152602401610a80565b600080546001600160a01b038381166001600160a01b0319831681178455604051919092169283917f8be0079c531659141344cd1fd0a4f28419497f9722a3daafe3b4186f6b6457e09190a35050565b60008060408385031215610b4c57600080fd5b50508035926020909101359150565b600060208284031215610b6d57600080fd5b5035919050565b634e487b7160e01b600052602160045260246000fd5b6001600160a01b0387811682528616602082015260408101859052606081018490526080810183905260c0810160048310610bd557634e487b7160e01b600052602160045260246000fd5b8260a0830152979650505050505050565b6001600160a01b03811681146105bd57600080fd5b600060208284031215610c0d57600080fd5b8135610c1881610be6565b9392505050565b634e487b7160e01b600052604160045260246000fd5b60405160a0810167ffffffffffffffff81118282101715610c5857610c58610c1f565b60405290565b604051601f8201601f1916810167ffffffffffffffff81118282101715610c8757610c87610c1f565b604052919050565b8051610c9a81610be6565b919050565b80518015158114610c9a57600080fd5b60006020808385031215610cc257600080fd5b825167ffffffffffffffff80821115610cda57600080fd5b9084019060a08287031215610cee57600080fd5b610cf6610c35565b825182811115610d0557600080fd5b8301601f81018813610d1657600080fd5b805183811115610d2857610d28610c1f565b610d3a601f8201601f19168701610c5e565b93508084528886828401011115610d5057600080fd5b60005b81811015610d6e578281018701518582018801528601610d53565b50600090840186015250818152610d86838501610c8f565b84820152610d9660408401610c9f565b604082015260608301516060820152608083015160808201528094505050505092915050565b634e487b7160e01b600052601160045260246000fd5b600060018201610de457610de4610dbc565b5060010190565b808202811582820484141761046957610469610dbc565b600060208284031215610e1457600080fd5b5051919050565b600082610e3857634e487b7160e01b600052601260045260246000fd5b500490565b8181038181111561046957610469610dbc56fea2646970667358221220c658daae0999514c517a0fac83937dc691f310d8d8ca83cc99aa8b1b23a149a664736f6c63430008140033",
  "linkReferences": {},
  "deployedLinkReferences": {}
}