{
  "_format": "hh-sol-artifact-1",
  "contractName": "DataVault",
  "sourceName": "contracts/DataVault.sol",
  "abi": [
    {
      "inputs": [],
      "stateMutability": "nonpayable",
      "type": "constructor"
    },
    {
      "inputs": [],
      "name": "CategoryAlreadyInactive",
      "type": "error"
    },
    {
      "inputs": [],
      "name": "CategoryInactive",
      "type": "error"
    },
    {
      "inputs": [],
      "name": "CategoryNotExists",
      "type": "error"
    },
    {
      "inputs": [],
      "name": "EmptyName",
      "type": "error"
    },
    {
      "inputs": [],
      "name": "InvalidCategoryId",
      "type": "error"
    },
    {
      "inputs": [
        {
          "internalType": "address",
          "name": "owner",
          "type": "address"
        }
      ],
      "name": "OwnableInvalidOwner",
      "type": "error"
    },
    {
      "inputs": [
        {
          "internalType": "address",
          "name": "account",
          "type": "address"
        }
      ],
      "name": "OwnableUnauthorizedAccount",
      "type": "error"
    },
    {
      "inputs": [],
      "name": "PermissionNotGranted",
      "type": "error"
    },
    {
      "inputs": [],
      "name": "ReentrancyGuardReentrantCall",
      "type": "error"
    },
    {
      "inputs": [],
      "name": "Unauthorized",
      "type": "error"
    },
    {
      "inputs": [],
      "name": "ZeroAddress",
      "type": "error"
    },
    {
      "inputs": [],
      "name": "ZeroDuration",
      "type": "error"
    },
    {
      "inputs": [],
      "name": "ZeroPrice",
      "type": "error"
    },
    {
      "anonymous": false,
      "inputs": [
        {
          "indexed": true,
          "internalType": "uint256",
          "name": "categoryId",
          "type": "uint256"
        }
      ],
      "name": "DataCategoryDeactivated",
      "type": "event"
    },
    {
      "anonymous": false,
      "inputs": [
        {
          "indexed": true,
          "internalType": "address",
          "name": "owner",
          "type": "address"
        },
        {
          "indexed": true,
          "internalType": "uint256",
          "name": "categoryId",
          "type": "uint256"
        },
        {
          "indexed": false,
          "internalType": "string",
          "name": "name",
          "type": "string"
        }
      ],
      "name": "DataCategoryRegistered",
      "type": "event"
    },
    {
      "anonymous": false,
      "inputs": [
        {
          "indexed": true,
          "internalType": "uint256",
          "name": "categoryId",
          "type": "uint256"
        }
      ],
      "name": "DataCategoryUpdated",
      "type": "event"
    },
    {
      "anonymous": false,
      "inputs": [
        {
          "indexed": true,
          "internalType": "address",
          "name": "previousOwner",
          "type": "address"
        },
        {
          "indexed": true,
          "internalType": "address",
          "name": "newOwner",
          "type": "address"
        }
      ],
      "name": "OwnershipTransferred",
      "type": "event"
    },
    {
      "anonymous": false,
      "inputs": [
        {
          "indexed": true,
          "internalType": "uint256",
          "name": "categoryId",
          "type": "uint256"
        },
        {
          "indexed": true,
          "internalType": "address",
          "name": "buyer",
          "type": "address"
        },
        {
          "indexed": false,
          "internalType": "uint256",
          "name": "expiryTimestamp",
          "type": "uint256"
        },
        {
          "indexed": false,
          "internalType": "uint256",
          "name": "totalPaid",
          "type": "uint256"
        }
      ],
      "name": "PermissionGranted",
      "type": "event"
    },
    {
      "anonymous": false,
      "inputs": [
        {
          "indexed": true,
          "internalType": "uint256",
          "name": "categoryId",
          "type": "uint256"
        },
        {
          "indexed": true,
          "internalType": "address",
          "name": "buyer",
          "type": "address"
        },
        {
          "indexed": false,
          "internalType": "uint256",
          "name": "refundAmount",
          "type": "uint256"
        }
      ],
      "name": "PermissionRevoked",
      "type": "event"
    },
    {
      "inputs": [
        {
          "internalType": "uint256",
          "name": "_categoryId",
          "type": "uint256"
        },
        {
          "internalType": "address",
          "name": "_buyer",
          "type": "address"
        }
      ],
      "name": "checkPermission",
      "outputs": [
        {
          "internalType": "bool",
          "name": "hasAccess",
          "type": "bool"
        }
      ],
      "stateMutability": "view",
      "type": "function"
    },
    {
      "inputs": [
        {
          "internalType": "uint256",
          "name": "_categoryId",
          "type": "uint256"
        }
      ],
      "name": "deactivateDataCategory",
      "outputs": [],
      "stateMutability": "nonpayable",
      "type": "function"
    },
    {
      "inputs": [
        {
          "internalType": "uint256",
          "name": "_categoryId",
          "type": "uint256"
        }
      ],
      "name": "getDataCategory",
      "outputs": [
        {
          "components": [
            {
              "internalType": "string",
              "name": "name",
              "type": "string"
            },
            {
              "internalType": "address",
              "name": "owner",
              "type": "address"
            },
            {
              "internalType": "bool",
              "name": "isActive",
              "type": "bool"
            },
            {
              "internalType": "uint256",
              "name": "pricePerDay",
              "type": "uint256"
            },
            {
              "internalType": "bytes32",
              "name": "dataHash",
              "type": "bytes32"
            }
          ],
          "internalType": "struct DataVault.DataCategory",
          "name": "category",
          "type": "tuple"
        }
      ],
      "stateMutability": "view",
      "type": "function"
    },
    {
      "inputs": [
        {
          "internalType": "address",
          "name": "_user",
          "type": "address"
        }
      ],
      "name": "getUserCategories",
      "outputs": [
        {
          "internalType": "uint256[]",
          "name": "ids",
          "type": "uint256[]"
        }
      ],
      "stateMutability": "view",
      "type": "function"
    },
    {
      "inputs": [
        {
          "internalType": "uint256",
          "name": "_categoryId",
          "type": "uint256"
        },
        {
          "internalType": "address",
          "name": "_buyer",
          "type": "address"
        },
        {
          "internalType": "uint256",
          "name": "_durationDays",
          "type": "uint256"
        }
      ],
      "name": "grantPermission",
      "outputs": [],
      "stateMutability": "nonpayable",
      "type": "function"
    },
    {
      "inputs": [],
      "name": "marketplace",
      "outputs": [
        {
          "internalType": "address",
          "name": "",
          "type": "address"
        }
      ],
      "stateMutability": "view",
      "type": "function"
    },
    {
      "inputs": [],
      "name": "owner",
      "outputs": [
        {
          "internalType": "address",
          "name": "",
          "type": "address"
        }
      ],
      "stateMutability": "view",
      "type": "function"
    },
    {
      "inputs": [
        {
          "internalType": "string",
          "name": "_name",
          "type": "string"
        },
        {
          "internalType": "uint256",
          "name": "_pricePerDay",
          "type": "uint256"
        },
        {
          "internalType": "bytes32",
          "name": "_dataHash",
          "type": "bytes32"
        }
      ],
      "name": "registerDataCategory",
      "outputs": [
        {
          "internalType": "uint256",
          "name": "categoryId",
          "type": "uint256"
        }
      ],
      "stateMutability": "nonpayable",
      "type": "function"
    },
    {
      "inputs": [],
      "name": "renounceOwnership",
      "outputs": [],
      "stateMutability": "nonpayable",
      "type": "function"
    },
    {
      "inputs": [
        {
          "internalType": "uint256",
          "name": "_categoryId",
          "type": "uint256"
        },
        {
          "internalType": "address",
          "name": "_buyer",
          "type": "address"
        }
      ],
      "name": "revokePermission",
      "outputs": [
        {
          "internalType": "uint256",
          "name": "refundAmount",
          "type": "uint256"
        }
      ],
      "stateMutability": "nonpayable",
      "type": "function"
    },
    {
      "inputs": [
        {
          "internalType": "address",
          "name": "_marketplace",
          "type": "address"
        }
      ],
      "name": "setMarketplace",
      "outputs": [],
      "stateMutability": "nonpayable",
      "type": "function"
    },
    {
      "inputs": [],
      "name": "totalCategories",
      "outputs": [
        {
          "internalType": "uint256",
          "name": "",
          "type": "uint256"
        }
      ],
      "stateMutability": "view",
      "type": "function"
    },
    {
      "inputs": [
        {
          "internalType": "address",
          "name": "newOwner",
          "type": "address"
        }
      ],
      "name": "transferOwnership",
      "outputs": [],
      "stateMutability": "nonpayable",
      "type": "function"
    },
    {
      "inputs": [
        {
          "internalType": "uint256",
          "name": "_categoryId",
          "type": "uint256"
        },
        {
          "internalType": "uint256",
          "name": "_newPricePerDay",
          "type": "uint256"
        },
        {
          "internalType": "bytes32",
          "name": "_newDataHash",
          "type": "bytes32"
        }
      ],
      "name": "updateDataCategory",
      "outputs": [],
      "stateMutability": "nonpayable",
      "type": "function"
    }
  ],
  "bytecode": "0x608060405234801561001057600080fd5b50338061003757604051631e4fbdf760e01b81526000600482015260240160405180910390fd5b6100408161004a565b506001805561009a565b600080546001600160a01b038381166001600160a01b0319831681178455604051919092169283917f8be0079c531659141344cd1fd0a4f28419497f9722a3daafe3b4186f6b6457e09190a35050565b6110dd806100a96000396000f3fe608060405234801561001057600080fd5b50600436106100ea5760003560e01c8063a0b5d8b71161008c578063d995a25511610066578063d995a255146101dc578063e41689cb146101ef578063e613bdcd1461020f578063f2fde38b1461022257600080fd5b8063a0b5d8b714610193578063abc8c7af146101a6578063c03ac91c146101b957600080fd5b806373ad6c2d116100c857806373ad6c2d146101285780637e794f181461013b5780638da5cb5b1461014e5780639ed1b2461461017357600080fd5b80633125d43c146100ef57806339275b0a14610115578063715018a61461011e575b600080fd5b6101026100fd366004610c73565b610235565b6040519081526020015b60405180910390f35b61010260025481565b610126610409565b005b610126610136366004610c9f565b61041d565b610126610149366004610cc1565b61046e565b6000546001600160a01b03165b6040516001600160a01b03909116815260200161010c565b610186610181366004610cf6565b61065e565b60405161010c9190610d0f565b6101266101a1366004610cf6565b610773565b60065461015b906001600160a01b031681565b6101cc6101c7366004610c73565b61085b565b604051901515815260200161010c565b6101266101ea366004610d9d565b610899565b6102026101fd366004610c9f565b610972565b60405161010c9190610dc9565b61010261021d366004610e0d565b6109de565b610126610230366004610c9f565b610b70565b600080546001600160a01b0316331480159061025c57506006546001600160a01b03163314155b15610279576040516282b42960e81b815260040160405180910390fd5b610281610bb0565b6001600160a01b0382166102a85760405163d92e233d60e01b815260040160405180910390fd5b8215806102b6575060025483115b156102d457604051633be9752f60e21b815260040160405180910390fd5b60008381526005602090815260408083206001600160a01b03861684529091529020805460ff1661031857604051630e5557e960e41b815260040160405180910390fd5b600062015180826003015483600101546103329190610ea2565b61033c9190610eb5565b90508060000361034f57600092506103aa565b6000620151808360030154426103659190610ea2565b61036f9190610eb5565b90508181111561037c5750805b60006103888284610ea2565b90508281856002015461039b9190610ed7565b6103a59190610eb5565b945050505b815460ff191682554260018301556040518381526001600160a01b0385169086907f5d09ee6f06b2a67a6845786381bbbd20a508c8895c5b3a71b0360e77b0c3cc009060200160405180910390a3505061040360018055565b92915050565b610411610bda565b61041b6000610c07565b565b610425610bda565b6001600160a01b03811661044c5760405163d92e233d60e01b815260040160405180910390fd5b600680546001600160a01b0319166001600160a01b0392909216919091179055565b6000546001600160a01b0316331480159061049457506006546001600160a01b03163314155b156104b1576040516282b42960e81b815260040160405180910390fd5b6104b9610bb0565b6001600160a01b0382166104e05760405163d92e233d60e01b815260040160405180910390fd5b806000036105015760405163346ab43760e11b815260040160405180910390fd5b82158061050f575060025483115b1561052d57604051633be9752f60e21b815260040160405180910390fd5b600083815260036020526040902060018101546001600160a01b03166105665760405163559ea27360e01b815260040160405180910390fd5b6001810154600160a01b900460ff1661059257604051631817702f60e31b815260040160405180910390fd5b60008481526005602090815260408083206001600160a01b038716845290915281209042906105c48562015180610ed7565b6105ce9083610eee565b905060008585600201546105e29190610ed7565b845460ff1916600190811786556003860185905585018390556002850181905560408051848152602081018390529192506001600160a01b038916918a917f94193f19d33bf68409da0b736e689017bcdb5962d800a48ac3d206414416885f910160405180910390a3505050505061065960018055565b505050565b6040805160a08101825260608082526000602083018190529282018390528101829052608081019190915260008281526003602052604090819020815160a081019092528054829082906106b190610f01565b80601f01602080910402602001604051908101604052809291908181526020018280546106dd90610f01565b801561072a5780601f106106ff5761010080835404028352916020019161072a565b820191906000526020600020905b81548152906001019060200180831161070d57829003601f168201915b505050918352505060018201546001600160a01b0381166020830152600160a01b900460ff16151560408201526002820154606082015260039091015460809091015292915050565b61077b610bda565b610783610bb0565b801580610791575060025481115b156107af57604051633be9752f60e21b815260040160405180910390fd5b600081815260036020526040902060018101546001600160a01b03166107e85760405163559ea27360e01b815260040160405180910390fd5b6001810154600160a01b900460ff1661081457604051634d365a3360e01b815260040160405180910390fd5b60018101805460ff60a01b1916905560405182907fd642d1586d50c820eea5c0f94aba56ecc32840ade0aaad6d6db4844793ca2da890600090a25061085860018055565b50565b60008281526005602090815260408083206001600160a01b03851684529091528120805460ff1680156108915750806001015442105b949350505050565b6108a1610bda565b6108a9610bb0565b8215806108b7575060025483115b156108d557604051633be9752f60e21b815260040160405180910390fd5b816000036108f657604051634dfba02360e01b815260040160405180910390fd5b600083815260036020526040902060018101546001600160a01b031661092f5760405163559ea27360e01b815260040160405180910390fd5b600281018390556003810182905560405184907f15d6c3e01efacacacc9f2d1de9e467ad6b266d66da7063e0533df46937b5503190600090a25061065960018055565b6001600160a01b0381166000908152600460209081526040918290208054835181840281018401909452808452606093928301828280156109d257602002820191906000526020600020905b8154815260200190600101908083116109be575b50505050509050919050565b60006109e8610bb0565b6000849003610a0a57604051632ef1310560e01b815260040160405180910390fd5b82600003610a2b57604051634dfba02360e01b815260040160405180910390fd5b600260008154610a3a90610f3b565b91829055506040805160c06020601f8901819004028201810190925260a0810187815292935091829188908890819085018382808284376000920182905250938552505033602080850191909152600160408086019190915260608501899052608090940187905285835260039052502081518190610ab99082610fb8565b50602082810151600180840180546040808801511515600160a01b026001600160a81b03199092166001600160a01b0390951694909417179055606085015160028501556080909401516003909301929092553360008181526004835283812080549586018155815291909120909201839055518291907fc1ab056e0dd4ec343e33cbd53e5a8b66f011080b61acf84ff0e712120861d60790610b5f9089908990611078565b60405180910390a361089160018055565b610b78610bda565b6001600160a01b038116610ba757604051631e4fbdf760e01b8152600060048201526024015b60405180910390fd5b61085881610c07565b600260015403610bd357604051633ee5aeb560e01b815260040160405180910390fd5b6002600155565b6000546001600160a01b0316331461041b5760405163118cdaa760e01b8152336004820152602401610b9e565b600080546001600160a01b038381166001600160a01b0319831681178455604051919092169283917f8be0079c531659141344cd1fd0a4f28419497f9722a3daafe3b4186f6b6457e09190a35050565b80356001600160a01b0381168114610c6e57600080fd5b919050565b60008060408385031215610c8657600080fd5b82359150610c9660208401610c57565b90509250929050565b600060208284031215610cb157600080fd5b610cba82610c57565b9392505050565b600080600060608486031215610cd657600080fd5b83359250610ce660208501610c57565b9150604084013590509250925092565b600060208284031215610d0857600080fd5b5035919050565b60006020808352835160a08285015280518060c086015260005b81811015610d455782810184015186820160e001528301610d29565b50600060e08287010152918501516001600160a01b03811660408601529160408601518015156060870152925060608601516080868101919091529095015160a0850152505050601f91909101601f19160160e00190565b600080600060608486031215610db257600080fd5b505081359360208301359350604090920135919050565b6020808252825182820181905260009190848201906040850190845b81811015610e0157835183529284019291840191600101610de5565b50909695505050505050565b60008060008060608587031215610e2357600080fd5b843567ffffffffffffffff80821115610e3b57600080fd5b818701915087601f830112610e4f57600080fd5b813581811115610e5e57600080fd5b886020828501011115610e7057600080fd5b6020928301999098509187013596604001359550909350505050565b634e487b7160e01b600052601160045260246000fd5b8181038181111561040357610403610e8c565b600082610ed257634e487b7160e01b600052601260045260246000fd5b500490565b808202811582820484141761040357610403610e8c565b8082018082111561040357610403610e8c565b600181811c90821680610f1557607f821691505b602082108103610f3557634e487b7160e01b600052602260045260246000fd5b50919050565b600060018201610f4d57610f4d610e8c565b5060010190565b634e487b7160e01b600052604160045260246000fd5b601f82111561065957600081815260208120601f850160051c81016020861015610f915750805b601f850160051c820191505b81811015610fb057828155600101610f9d565b505050505050565b815167ffffffffffffffff811115610fd257610fd2610f54565b610fe681610fe08454610f01565b84610f6a565b602080601f83116001811461101b57600084156110035750858301515b600019600386901b1c1916600185901b178555610fb0565b600085815260208120601f198616915b8281101561104a5788860151825594840194600190910190840161102b565b50858210156110685787850151600019600388901b60f8161c191681555b5050505050600190811b01905550565b60208152816020820152818360408301376000818301604090810191909152601f909201601f1916010191905056fea264697066735822122051911b4e030ce7a8a6d0201005c23375d317ae07392fff0b0a57d7c7e877b12164736f6c63430008140033",
  "linkReferences": {},
  "deployedLinkReferences": {}
}