{
  "_format": "hh-sol-artifact-1",
  "contractName": "PaymentSplitter",
  "sourceName": "contracts/PaymentSplitter.sol",
  "abi": [
    {
      "inputs": [
        {
          "internalType": "address",
          "name": "_platformWallet",
          "type": "address"
        }
      ],
      "stateMutability": "nonpayable",
      "type": "constructor"
    },
    {
      "inputs": [
        {
          "internalType": "address",
          "name": "owner",
          "type": "address"
        }
      ],
      "name": "OwnableInvalidOwner",
      "type": "error"
    },
    {
      "inputs": [
        {
          "internalType": "address",
          "name": "account",
          "type": "address"
        }
      ],
      "name": "OwnableUnauthorizedAccount",
      "type": "error"
    },
    {
      "inputs": [],
      "name": "OwnerTransferFailed",
      "type": "error"
    },
    {
      "inputs": [],
      "name": "PercentageExceeded",
      "type": "error"
    },
    {
      "inputs": [],
      "name": "PlatformTransferFailed",
      "type": "error"
    },
    {
      "inputs": [],
      "name": "UsedDurationExceedsTotal",
      "type": "error"
    },
    {
      "inputs": [],
      "name": "ZeroAddress",
      "type": "error"
    },
    {
      "inputs": [],
      "name": "ZeroAmount",
      "type": "error"
    },
    {
      "inputs": [],
      "name": "ZeroDuration",
      "type": "error"
    },
    {
      "anonymous": false,
      "inputs": [
        {
          "indexed": true,
          "internalType": "address",
          "name": "previousOwner",
          "type": "address"
        },
        {
          "indexed": true,
          "internalType": "address",
          "name": "newOwner",
          "type": "address"
        }
      ],
      "name": "OwnershipTransferred",
      "type": "event"
    },
    {
      "anonymous": false,
      "inputs": [
        {
          "indexed": true,
          "internalType": "address",
          "name": "owner",
          "type": "address"
        },
        {
          "indexed": false,
          "internalType": "uint256",
          "name": "ownerAmount",
          "type": "uint256"
        },
        {
          "indexed": false,
          "internalType": "uint256",
          "name": "platformFee",
          "type": "uint256"
        }
      ],
      "name": "PaymentSplit",
      "type": "event"
    },
    {
      "inputs": [
        {
          "internalType": "uint256",
          "name": "totalPaid",
          "type": "uint256"
        },
        {
          "internalType": "uint256",
          "name": "totalDuration",
          "type": "uint256"
        },
        {
          "internalType": "uint256",
          "name": "usedDuration",
          "type": "uint256"
        }
      ],
      "name": "calculateProRatedRefund",
      "outputs": [
        {
          "internalType": "uint256",
          "name": "refundAmount",
          "type": "uint256"
        }
      ],
      "stateMutability": "pure",
      "type": "function"
    },
    {
      "inputs": [],
      "name": "owner",
      "outputs": [
        {
          "internalType": "address",
          "name": "",
          "type": "address"
        }
      ],
      "stateMutability": "view",
      "type": "function"
    },
    {
      "inputs": [],
      "name": "platformFeePercentage",
      "outputs": [
        {
          "internalType": "uint256",
          "name": "",
          "type": "uint256"
        }
      ],
      "stateMutability": "view",
      "type": "function"
    },
    {
      "inputs": [],
      "name": "platformWallet",
      "outputs": [
        {
          "internalType": "address",
          "name": "",
          "type": "address"
        }
      ],
      "stateMutability": "view",
      "type": "function"
    },
    {
      "inputs": [],
      "name": "renounceOwnership",
      "outputs": [],
      "stateMutability": "nonpayable",
      "type": "function"
    },
    {
      "inputs": [
        {
          "internalType": "uint256",
          "name": "newPct",
          "type": "uint256"
        }
      ],
      "name": "setPlatformFeePercentage",
      "outputs": [],
      "stateMutability": "nonpayable",
      "type": "function"
    },
    {
      "inputs": [
        {
          "internalType": "address",
          "name": "newWallet",
          "type": "address"
        }
      ],
      "name": "setPlatformWallet",
      "outputs": [],
      "stateMutability": "nonpayable",
      "type": "function"
    },
    {
      "inputs": [
        {
          "internalType": "address",
          "name": "owner",
          "type": "address"
        }
      ],
      "name": "split",
      "outputs": [],
      "stateMutability": "payable",
      "type": "function"
    },
    {
      "inputs": [
        {
          "internalType": "address",
          "name": "newOwner",
          "type": "address"
        }
      ],
      "name": "transferOwnership",
      "outputs": [],
      "stateMutability": "nonpayable",
      "type": "function"
    }
  ],
  "bytecode": "0x6080604052600a60015534801561001557600080fd5b5060405161077738038061077783398101604081905261003491610100565b338061005a57604051631e4fbdf760e01b81526000600482015260240160405180910390fd5b610063816100b0565b506001600160a01b03811661008b5760405163d92e233d60e01b815260040160405180910390fd5b600280546001600160a01b0319166001600160a01b0392909216919091179055610130565b600080546001600160a01b038381166001600160a01b0319831681178455604051919092169283917f8be0079c531659141344cd1fd0a4f28419497f9722a3daafe3b4186f6b6457e09190a35050565b60006020828403121561011257600080fd5b81516001600160a01b038116811461012957600080fd5b9392505050565b6106388061013f6000396000f3fe6080604052600436106100865760003560e01c80638da5cb5b116100595780638da5cb5b146100f5578063cdd78cfc1461012c578063e86a048114610150578063f2fde38b14610170578063fa2af9da1461019057600080fd5b806356fa47f01461008b578063715018a6146100a05780638333903e146100b55780638831e9cf146100d5575b600080fd5b61009e61009936600461052c565b6101b0565b005b3480156100ac57600080fd5b5061009e610357565b3480156100c157600080fd5b5061009e6100d0366004610555565b61036b565b3480156100e157600080fd5b5061009e6100f036600461052c565b61039a565b34801561010157600080fd5b506000546001600160a01b03165b6040516001600160a01b0390911681526020015b60405180910390f35b34801561013857600080fd5b5061014260015481565b604051908152602001610123565b34801561015c57600080fd5b5061014261016b36600461056e565b6103eb565b34801561017c57600080fd5b5061009e61018b36600461052c565b61046c565b34801561019c57600080fd5b5060025461010f906001600160a01b031681565b6001600160a01b0381166101d75760405163d92e233d60e01b815260040160405180910390fd5b346000036101f857604051631f2a200560e01b815260040160405180910390fd5b600060646001543461020a91906105b0565b61021491906105cd565b9050600061022282346105ef565b90506000836001600160a01b03168260405160006040518083038185875af1925050503d8060008114610271576040519150601f19603f3d011682016040523d82523d6000602084013e610276565b606091505b5050905080610298576040516327c94e2160e11b815260040160405180910390fd5b6002546040516000916001600160a01b03169085908381818185875af1925050503d80600081146102e5576040519150601f19603f3d011682016040523d82523d6000602084013e6102ea565b606091505b505090508061030c57604051632256871d60e11b815260040160405180910390fd5b60408051848152602081018690526001600160a01b038716917f56a12c07db1ce5ab325bf1e961b0663e516d8b63934b7acf68076840b8fef70c910160405180910390a25050505050565b61035f6104af565b61036960006104dc565b565b6103736104af565b606481111561039557604051632570c96b60e21b815260040160405180910390fd5b600155565b6103a26104af565b6001600160a01b0381166103c95760405163d92e233d60e01b815260040160405180910390fd5b600280546001600160a01b0319166001600160a01b0392909216919091179055565b60008260000361040e5760405163346ab43760e11b815260040160405180910390fd5b8282111561042f576040516313cd56cf60e21b815260040160405180910390fd5b82821061043e57506000610465565b600061044a83856105ef565b90508361045782876105b0565b61046191906105cd565b9150505b9392505050565b6104746104af565b6001600160a01b0381166104a357604051631e4fbdf760e01b8152600060048201526024015b60405180910390fd5b6104ac816104dc565b50565b6000546001600160a01b031633146103695760405163118cdaa760e01b815233600482015260240161049a565b600080546001600160a01b038381166001600160a01b0319831681178455604051919092169283917f8be0079c531659141344cd1fd0a4f28419497f9722a3daafe3b4186f6b6457e09190a35050565b60006020828403121561053e57600080fd5b81356001600160a01b038116811461046557600080fd5b60006020828403121561056757600080fd5b5035919050565b60008060006060848603121561058357600080fd5b505081359360208301359350604090920135919050565b634e487b7160e01b600052601160045260246000fd5b80820281158282048414176105c7576105c761059a565b92915050565b6000826105ea57634e487b7160e01b600052601260045260246000fd5b500490565b818103818111156105c7576105c761059a56fea264697066735822122002d17f707c7cc7ce44c0dd188ead360dddf56398746ba090986431d10480b68164736f6c63430008140033",
  "linkReferences": {},
  "deployedLinkReferences": {}
}